{
  "_format": "hh-sol-artifact-1",
  "contractName": "Twitter",
  "sourceName": "contracts/Twitter.sol",
  "abi": [
    {
      "inputs": [],
      "stateMutability": "nonpayable",
      "type": "constructor"
    },
    {
      "anonymous": false,
      "inputs": [
        {
          "indexed": false,
          "internalType": "address",
          "name": "tweeter",
          "type": "address"
        },
        {
          "indexed": false,
          "internalType": "uint256",
          "name": "id",
          "type": "uint256"
        },
        {
          "indexed": false,
          "internalType": "string",
          "name": "tweetText",
          "type": "string"
        },
        {
          "indexed": false,
          "internalType": "string",
          "name": "tweetImg",
          "type": "string"
        },
        {
          "indexed": false,
          "internalType": "bool",
          "name": "isDeleted",
          "type": "bool"
        },
        {
          "indexed": false,
          "internalType": "uint256",
          "name": "timestamp",
          "type": "uint256"
        }
      ],
      "name": "tweetCreated",
      "type": "event"
    },
    {
      "anonymous": false,
      "inputs": [
        {
          "indexed": false,
          "internalType": "uint256",
          "name": "id",
          "type": "uint256"
        },
        {
          "indexed": false,
          "internalType": "bool",
          "name": "isDeleted",
          "type": "bool"
        }
      ],
      "name": "tweetDeleted",
      "type": "event"
    },
    {
      "inputs": [
        {
          "internalType": "string",
          "name": "tweetText",
          "type": "string"
        },
        {
          "internalType": "string",
          "name": "tweetImg",
          "type": "string"
        }
      ],
      "name": "addTweet",
      "outputs": [],
      "stateMutability": "payable",
      "type": "function"
    },
    {
      "inputs": [
        {
          "internalType": "uint256",
          "name": "tweetId",
          "type": "uint256"
        },
        {
          "internalType": "bool",
          "name": "isDeleted",
          "type": "bool"
        }
      ],
      "name": "deleteTweet",
      "outputs": [],
      "stateMutability": "nonpayable",
      "type": "function"
    },
    {
      "inputs": [],
      "name": "getAllTweets",
      "outputs": [
        {
          "components": [
            {
              "internalType": "address",
              "name": "tweeter",
              "type": "address"
            },
            {
              "internalType": "uint256",
              "name": "id",
              "type": "uint256"
            },
            {
              "internalType": "string",
              "name": "tweetText",
              "type": "string"
            },
            {
              "internalType": "string",
              "name": "tweetImg",
              "type": "string"
            },
            {
              "internalType": "bool",
              "name": "isDeleted",
              "type": "bool"
            },
            {
              "internalType": "uint256",
              "name": "timestamp",
              "type": "uint256"
            }
          ],
          "internalType": "struct Twitter.tweet[]",
          "name": "",
          "type": "tuple[]"
        }
      ],
      "stateMutability": "view",
      "type": "function"
    },
    {
      "inputs": [],
      "name": "getMyTweets",
      "outputs": [
        {
          "components": [
            {
              "internalType": "address",
              "name": "tweeter",
              "type": "address"
            },
            {
              "internalType": "uint256",
              "name": "id",
              "type": "uint256"
            },
            {
              "internalType": "string",
              "name": "tweetText",
              "type": "string"
            },
            {
              "internalType": "string",
              "name": "tweetImg",
              "type": "string"
            },
            {
              "internalType": "bool",
              "name": "isDeleted",
              "type": "bool"
            },
            {
              "internalType": "uint256",
              "name": "timestamp",
              "type": "uint256"
            }
          ],
          "internalType": "struct Twitter.tweet[]",
          "name": "",
          "type": "tuple[]"
        }
      ],
      "stateMutability": "view",
      "type": "function"
    },
    {
      "inputs": [
        {
          "internalType": "uint256",
          "name": "id",
          "type": "uint256"
        }
      ],
      "name": "getTweet",
      "outputs": [
        {
          "internalType": "string",
          "name": "",
          "type": "string"
        },
        {
          "internalType": "string",
          "name": "",
          "type": "string"
        },
        {
          "internalType": "address",
          "name": "",
          "type": "address"
        }
      ],
      "stateMutability": "view",
      "type": "function"
    },
    {
      "inputs": [
        {
          "internalType": "address",
          "name": "userAddress",
          "type": "address"
        }
      ],
      "name": "getUser",
      "outputs": [
        {
          "components": [
            {
              "internalType": "string",
              "name": "name",
              "type": "string"
            },
            {
              "internalType": "string",
              "name": "bio",
              "type": "string"
            },
            {
              "internalType": "string",
              "name": "profileImg",
              "type": "string"
            },
            {
              "internalType": "string",
              "name": "profileBanner",
              "type": "string"
            }
          ],
          "internalType": "struct Twitter.user",
          "name": "",
          "type": "tuple"
        }
      ],
      "stateMutability": "view",
      "type": "function"
    },
    {
      "inputs": [],
      "name": "owner",
      "outputs": [
        {
          "internalType": "address",
          "name": "",
          "type": "address"
        }
      ],
      "stateMutability": "view",
      "type": "function"
    },
    {
      "inputs": [
        {
          "internalType": "string",
          "name": "newName",
          "type": "string"
        },
        {
          "internalType": "string",
          "name": "newBio",
          "type": "string"
        },
        {
          "internalType": "string",
          "name": "newProfileImg",
          "type": "string"
        },
        {
          "internalType": "string",
          "name": "newProfileBanner",
          "type": "string"
        }
      ],
      "name": "updateUser",
      "outputs": [],
      "stateMutability": "nonpayable",
      "type": "function"
    }
  ],
  "bytecode": "0x608060405234801561001057600080fd5b50336000806101000a81548173ffffffffffffffffffffffffffffffffffffffff021916908373ffffffffffffffffffffffffffffffffffffffff1602179055506000600181905550611dd9806100686000396000f3fe60806040526004361061007b5760003560e01c8063aefedbc21161004e578063aefedbc21461012f578063b5c24a011461015a578063c3ad5ecb14610183578063f0312a37146101c25761007b565b806353256135146100805780636f77926b146100ab5780637e75b408146100e85780638da5cb5b14610104575b600080fd5b34801561008c57600080fd5b506100956101eb565b6040516100a291906114e4565b60405180910390f35b3480156100b757600080fd5b506100d260048036038101906100cd9190611546565b610546565b6040516100df91906115eb565b60405180910390f35b61010260048036038101906100fd9190611742565b6107e7565b005b34801561011057600080fd5b506101196109b7565b60405161012691906117c9565b60405180910390f35b34801561013b57600080fd5b506101446109db565b60405161015191906114e4565b60405180910390f35b34801561016657600080fd5b50610181600480360381019061017c91906117e4565b610da3565b005b34801561018f57600080fd5b506101aa60048036038101906101a591906118e7565b610e51565b6040516101b99392919061195e565b60405180910390f35b3480156101ce57600080fd5b506101e960048036038101906101e491906119cf565b61105c565b005b6060600060015467ffffffffffffffff81111561020b5761020a611617565b5b60405190808252806020026020018201604052801561024457816020015b61023161116b565b8152602001906001900390816102295790505b5090506000805b60015481101561048c57600015156002600083815260200190815260200160002060040160009054906101000a900460ff161515141561047957600260008281526020019081526020016000206040518060c00160405290816000820160009054906101000a900473ffffffffffffffffffffffffffffffffffffffff1673ffffffffffffffffffffffffffffffffffffffff1673ffffffffffffffffffffffffffffffffffffffff1681526020016001820154815260200160028201805461031390611a3e565b80601f016020809104026020016040519081016040528092919081815260200182805461033f90611a3e565b801561038c5780601f106103615761010080835404028352916020019161038c565b820191906000526020600020905b81548152906001019060200180831161036f57829003601f168201915b505050505081526020016003820180546103a590611a3e565b80601f01602080910402602001604051908101604052809291908181526020018280546103d190611a3e565b801561041e5780601f106103f35761010080835404028352916020019161041e565b820191906000526020600020905b81548152906001019060200180831161040157829003601f168201915b505050505081526020016004820160009054906101000a900460ff1615151515815260200160058201548152505083838151811061045f5761045e611a70565b5b6020026020010181905250818061047590611ace565b9250505b808061048490611ace565b91505061024b565b5060008167ffffffffffffffff8111156104a9576104a8611617565b5b6040519080825280602002602001820160405280156104e257816020015b6104cf61116b565b8152602001906001900390816104c75790505b50905060005b8281101561053c5783818151811061050357610502611a70565b5b602002602001015182828151811061051e5761051d611a70565b5b6020026020010181905250808061053490611ace565b9150506104e8565b5080935050505090565b61054e6111b9565b600360008373ffffffffffffffffffffffffffffffffffffffff1673ffffffffffffffffffffffffffffffffffffffff1681526020019081526020016000206040518060800160405290816000820180546105a890611a3e565b80601f01602080910402602001604051908101604052809291908181526020018280546105d490611a3e565b80156106215780601f106105f657610100808354040283529160200191610621565b820191906000526020600020905b81548152906001019060200180831161060457829003601f168201915b5050505050815260200160018201805461063a90611a3e565b80601f016020809104026020016040519081016040528092919081815260200182805461066690611a3e565b80156106b35780601f10610688576101008083540402835291602001916106b3565b820191906000526020600020905b81548152906001019060200180831161069657829003601f168201915b505050505081526020016002820180546106cc90611a3e565b80601f01602080910402602001604051908101604052809291908181526020018280546106f890611a3e565b80156107455780601f1061071a57610100808354040283529160200191610745565b820191906000526020600020905b81548152906001019060200180831161072857829003601f168201915b5050505050815260200160038201805461075e90611a3e565b80601f016020809104026020016040519081016040528092919081815260200182805461078a90611a3e565b80156107d75780601f106107ac576101008083540402835291602001916107d7565b820191906000526020600020905b8154815290600101906020018083116107ba57829003601f168201915b5050505050815250509050919050565b662386f26fc100003414610830576040517f08c379a000000000000000000000000000000000000000000000000000000000815260040161082790611b63565b60405180910390fd5b60006002600060015481526020019081526020016000209050828160020190805190602001906108619291906111e1565b508181600301908051906020019061087a9291906111e1565b50338160000160006101000a81548173ffffffffffffffffffffffffffffffffffffffff021916908373ffffffffffffffffffffffffffffffffffffffff160217905550600154816001018190555060008160040160006101000a81548160ff0219169083151502179055504281600501819055507f38c5779ac46571418294ee2465c37dedbc6002dc9d04a4033cf23156da62fcd333600154858560004260405161092b96959493929190611ba1565b60405180910390a16001600081548092919061094690611ace565b919050555060008054906101000a900473ffffffffffffffffffffffffffffffffffffffff1673ffffffffffffffffffffffffffffffffffffffff166108fc349081150290604051600060405180830381858888f193505050501580156109b1573d6000803e3d6000fd5b50505050565b60008054906101000a900473ffffffffffffffffffffffffffffffffffffffff1681565b6060600060015467ffffffffffffffff8111156109fb576109fa611617565b5b604051908082528060200260200182016040528015610a3457816020015b610a2161116b565b815260200190600190039081610a195790505b5090506000805b600154811015610ce9573373ffffffffffffffffffffffffffffffffffffffff166002600083815260200190815260200160002060000160009054906101000a900473ffffffffffffffffffffffffffffffffffffffff1673ffffffffffffffffffffffffffffffffffffffff16148015610add5750600015156002600083815260200190815260200160002060040160009054906101000a900460ff161515145b15610cd657600260008281526020019081526020016000206040518060c00160405290816000820160009054906101000a900473ffffffffffffffffffffffffffffffffffffffff1673ffffffffffffffffffffffffffffffffffffffff1673ffffffffffffffffffffffffffffffffffffffff16815260200160018201548152602001600282018054610b7090611a3e565b80601f0160208091040260200160405190810160405280929190818152602001828054610b9c90611a3e565b8015610be95780601f10610bbe57610100808354040283529160200191610be9565b820191906000526020600020905b815481529060010190602001808311610bcc57829003601f168201915b50505050508152602001600382018054610c0290611a3e565b80601f0160208091040260200160405190810160405280929190818152602001828054610c2e90611a3e565b8015610c7b5780601f10610c5057610100808354040283529160200191610c7b565b820191906000526020600020905b815481529060010190602001808311610c5e57829003601f168201915b505050505081526020016004820160009054906101000a900460ff16151515158152602001600582015481525050838381518110610cbc57610cbb611a70565b5b60200260200101819052508180610cd290611ace565b9250505b8080610ce190611ace565b915050610a3b565b5060008167ffffffffffffffff811115610d0657610d05611617565b5b604051908082528060200260200182016040528015610d3f57816020015b610d2c61116b565b815260200190600190039081610d245790505b50905060005b82811015610d9957838181518110610d6057610d5f611a70565b5b6020026020010151828281518110610d7b57610d7a611a70565b5b60200260200101819052508080610d9190611ace565b915050610d45565b5080935050505090565b6000600360003373ffffffffffffffffffffffffffffffffffffffff1673ffffffffffffffffffffffffffffffffffffffff168152602001908152602001600020905084816000019080519060200190610dfe9291906111e1565b5083816001019080519060200190610e179291906111e1565b5082816002019080519060200190610e309291906111e1565b5081816003019080519060200190610e499291906111e1565b505050505050565b60608060006001548410610e9a576040517f08c379a0000000000000000000000000000000000000000000000000000000008152600401610e9190611c5c565b60405180910390fd5b6000600260008681526020019081526020016000209050600015158160040160009054906101000a900460ff16151514610f09576040517f08c379a0000000000000000000000000000000000000000000000000000000008152600401610f0090611cc8565b60405180910390fd5b80600201816003018260000160009054906101000a900473ffffffffffffffffffffffffffffffffffffffff16828054610f4290611a3e565b80601f0160208091040260200160405190810160405280929190818152602001828054610f6e90611a3e565b8015610fbb5780601f10610f9057610100808354040283529160200191610fbb565b820191906000526020600020905b815481529060010190602001808311610f9e57829003601f168201915b50505050509250818054610fce90611a3e565b80601f0160208091040260200160405190810160405280929190818152602001828054610ffa90611a3e565b80156110475780601f1061101c57610100808354040283529160200191611047565b820191906000526020600020905b81548152906001019060200180831161102a57829003601f168201915b50505050509150935093509350509193909250565b3373ffffffffffffffffffffffffffffffffffffffff166002600084815260200190815260200160002060000160009054906101000a900473ffffffffffffffffffffffffffffffffffffffff1673ffffffffffffffffffffffffffffffffffffffff1614611100576040517f08c379a00000000000000000000000000000000000000000000000000000000081526004016110f790611d5a565b60405180910390fd5b806002600084815260200190815260200160002060040160006101000a81548160ff0219169083151502179055507f7d6920872f4fb292f7fc9afd13a3e5e33dcdb18dfaa6c5f1dcd87b2a4d532a18828260405161115f929190611d7a565b60405180910390a15050565b6040518060c00160405280600073ffffffffffffffffffffffffffffffffffffffff168152602001600081526020016060815260200160608152602001600015158152602001600081525090565b6040518060800160405280606081526020016060815260200160608152602001606081525090565b8280546111ed90611a3e565b90600052602060002090601f01602090048101928261120f5760008555611256565b82601f1061122857805160ff1916838001178555611256565b82800160010185558215611256579182015b8281111561125557825182559160200191906001019061123a565b5b5090506112639190611267565b5090565b5b80821115611280576000816000905550600101611268565b5090565b600081519050919050565b600082825260208201905092915050565b6000819050602082019050919050565b600073ffffffffffffffffffffffffffffffffffffffff82169050919050565b60006112db826112b0565b9050919050565b6112eb816112d0565b82525050565b6000819050919050565b611304816112f1565b82525050565b600081519050919050565b600082825260208201905092915050565b60005b83811015611344578082015181840152602081019050611329565b83811115611353576000848401525b50505050565b6000601f19601f8301169050919050565b60006113758261130a565b61137f8185611315565b935061138f818560208601611326565b61139881611359565b840191505092915050565b60008115159050919050565b6113b8816113a3565b82525050565b600060c0830160008301516113d660008601826112e2565b5060208301516113e960208601826112fb565b5060408301518482036040860152611401828261136a565b9150506060830151848203606086015261141b828261136a565b915050608083015161143060808601826113af565b5060a083015161144360a08601826112fb565b508091505092915050565b600061145a83836113be565b905092915050565b6000602082019050919050565b600061147a82611284565b611484818561128f565b935083602082028501611496856112a0565b8060005b858110156114d257848403895281516114b3858261144e565b94506114be83611462565b925060208a0199505060018101905061149a565b50829750879550505050505092915050565b600060208201905081810360008301526114fe818461146f565b905092915050565b6000604051905090565b600080fd5b600080fd5b611523816112d0565b811461152e57600080fd5b50565b6000813590506115408161151a565b92915050565b60006020828403121561155c5761155b611510565b5b600061156a84828501611531565b91505092915050565b60006080830160008301518482036000860152611590828261136a565b915050602083015184820360208601526115aa828261136a565b915050604083015184820360408601526115c4828261136a565b915050606083015184820360608601526115de828261136a565b9150508091505092915050565b600060208201905081810360008301526116058184611573565b905092915050565b600080fd5b600080fd5b7f4e487b7100000000000000000000000000000000000000000000000000000000600052604160045260246000fd5b61164f82611359565b810181811067ffffffffffffffff8211171561166e5761166d611617565b5b80604052505050565b6000611681611506565b905061168d8282611646565b919050565b600067ffffffffffffffff8211156116ad576116ac611617565b5b6116b682611359565b9050602081019050919050565b82818337600083830152505050565b60006116e56116e084611692565b611677565b90508281526020810184848401111561170157611700611612565b5b61170c8482856116c3565b509392505050565b600082601f8301126117295761172861160d565b5b81356117398482602086016116d2565b91505092915050565b6000806040838503121561175957611758611510565b5b600083013567ffffffffffffffff81111561177757611776611515565b5b61178385828601611714565b925050602083013567ffffffffffffffff8111156117a4576117a3611515565b5b6117b085828601611714565b9150509250929050565b6117c3816112d0565b82525050565b60006020820190506117de60008301846117ba565b92915050565b600080600080608085870312156117fe576117fd611510565b5b600085013567ffffffffffffffff81111561181c5761181b611515565b5b61182887828801611714565b945050602085013567ffffffffffffffff81111561184957611848611515565b5b61185587828801611714565b935050604085013567ffffffffffffffff81111561187657611875611515565b5b61188287828801611714565b925050606085013567ffffffffffffffff8111156118a3576118a2611515565b5b6118af87828801611714565b91505092959194509250565b6118c4816112f1565b81146118cf57600080fd5b50565b6000813590506118e1816118bb565b92915050565b6000602082840312156118fd576118fc611510565b5b600061190b848285016118d2565b91505092915050565b600082825260208201905092915050565b60006119308261130a565b61193a8185611914565b935061194a818560208601611326565b61195381611359565b840191505092915050565b600060608201905081810360008301526119788186611925565b9050818103602083015261198c8185611925565b905061199b60408301846117ba565b949350505050565b6119ac816113a3565b81146119b757600080fd5b50565b6000813590506119c9816119a3565b92915050565b600080604083850312156119e6576119e5611510565b5b60006119f4858286016118d2565b9250506020611a05858286016119ba565b9150509250929050565b7f4e487b7100000000000000000000000000000000000000000000000000000000600052602260045260246000fd5b60006002820490506001821680611a5657607f821691505b60208210811415611a6a57611a69611a0f565b5b50919050565b7f4e487b7100000000000000000000000000000000000000000000000000000000600052603260045260246000fd5b7f4e487b7100000000000000000000000000000000000000000000000000000000600052601160045260246000fd5b6000611ad9826112f1565b91507fffffffffffffffffffffffffffffffffffffffffffffffffffffffffffffffff821415611b0c57611b0b611a9f565b5b600182019050919050565b7f506c65617365207375626d697420302e3031204d415449430000000000000000600082015250565b6000611b4d601883611914565b9150611b5882611b17565b602082019050919050565b60006020820190508181036000830152611b7c81611b40565b9050919050565b611b8c816112f1565b82525050565b611b9b816113a3565b82525050565b600060c082019050611bb660008301896117ba565b611bc36020830188611b83565b8181036040830152611bd58187611925565b90508181036060830152611be98186611925565b9050611bf86080830185611b92565b611c0560a0830184611b83565b979650505050505050565b7f4e6f207375636820547765657400000000000000000000000000000000000000600082015250565b6000611c46600d83611914565b9150611c5182611c10565b602082019050919050565b60006020820190508181036000830152611c7581611c39565b9050919050565b7f54776565742069732064656c6574656400000000000000000000000000000000600082015250565b6000611cb2601083611914565b9150611cbd82611c7c565b602082019050919050565b60006020820190508181036000830152611ce181611ca5565b9050919050565b7f596f752063616e206f6e6c792064656c65746520796f7572206f776e2074776560008201527f6574000000000000000000000000000000000000000000000000000000000000602082015250565b6000611d44602283611914565b9150611d4f82611ce8565b604082019050919050565b60006020820190508181036000830152611d7381611d37565b9050919050565b6000604082019050611d8f6000830185611b83565b611d9c6020830184611b92565b939250505056fea26469706673582212202564d743aa8844e89603b54000fa89824a7d94d906ccc79bf4c29fc642b06d7c64736f6c63430008090033",
  "linkReferences": {},
  "deployedLinkReferences": {}
}